{
  "_format": "hh-sol-artifact-1",
  "contractName": "RideSharing",
  "sourceName": "contracts/RideSharing.sol",
  "abi": [
    {
      "anonymous": false,
      "inputs": [
        {
          "indexed": false,
          "internalType": "uint256",
          "name": "id",
          "type": "uint256"
        },
        {
          "indexed": false,
          "internalType": "address",
          "name": "passenger",
          "type": "address"
        }
      ],
      "name": "RideBooked",
      "type": "event"
    },
    {
      "anonymous": false,
      "inputs": [
        {
          "indexed": false,
          "internalType": "uint256",
          "name": "id",
          "type": "uint256"
        },
        {
          "indexed": false,
          "internalType": "address",
          "name": "driver",
          "type": "address"
        },
        {
          "indexed": false,
          "internalType": "string",
          "name": "origin",
          "type": "string"
        },
        {
          "indexed": false,
          "internalType": "string",
          "name": "destination",
          "type": "string"
        },
        {
          "indexed": false,
          "internalType": "uint256",
          "name": "fare",
          "type": "uint256"
        }
      ],
      "name": "RideCreated",
      "type": "event"
    },
    {
      "inputs": [
        {
          "internalType": "uint256",
          "name": "_rideId",
          "type": "uint256"
        }
      ],
      "name": "bookRide",
      "outputs": [],
      "stateMutability": "payable",
      "type": "function"
    },
    {
      "inputs": [
        {
          "internalType": "string",
          "name": "_origin",
          "type": "string"
        },
        {
          "internalType": "string",
          "name": "_destination",
          "type": "string"
        },
        {
          "internalType": "uint256",
          "name": "_fare",
          "type": "uint256"
        }
      ],
      "name": "createRide",
      "outputs": [],
      "stateMutability": "nonpayable",
      "type": "function"
    },
    {
      "inputs": [
        {
          "internalType": "uint256",
          "name": "_rideId",
          "type": "uint256"
        }
      ],
      "name": "getRide",
      "outputs": [
        {
          "internalType": "uint256",
          "name": "",
          "type": "uint256"
        },
        {
          "internalType": "address",
          "name": "",
          "type": "address"
        },
        {
          "internalType": "string",
          "name": "",
          "type": "string"
        },
        {
          "internalType": "string",
          "name": "",
          "type": "string"
        },
        {
          "internalType": "uint256",
          "name": "",
          "type": "uint256"
        },
        {
          "internalType": "enum RideSharing.RideStatus",
          "name": "",
          "type": "uint8"
        },
        {
          "internalType": "address",
          "name": "",
          "type": "address"
        }
      ],
      "stateMutability": "view",
      "type": "function"
    },
    {
      "inputs": [],
      "name": "rideCount",
      "outputs": [
        {
          "internalType": "uint256",
          "name": "",
          "type": "uint256"
        }
      ],
      "stateMutability": "view",
      "type": "function"
    },
    {
      "inputs": [
        {
          "internalType": "uint256",
          "name": "",
          "type": "uint256"
        }
      ],
      "name": "rides",
      "outputs": [
        {
          "internalType": "uint256",
          "name": "id",
          "type": "uint256"
        },
        {
          "internalType": "address payable",
          "name": "driver",
          "type": "address"
        },
        {
          "internalType": "string",
          "name": "origin",
          "type": "string"
        },
        {
          "internalType": "string",
          "name": "destination",
          "type": "string"
        },
        {
          "internalType": "uint256",
          "name": "fare",
          "type": "uint256"
        },
        {
          "internalType": "enum RideSharing.RideStatus",
          "name": "status",
          "type": "uint8"
        },
        {
          "internalType": "address",
          "name": "passenger",
          "type": "address"
        }
      ],
      "stateMutability": "view",
      "type": "function"
    }
  ],
  "bytecode": "0x60806040526000805534801561001457600080fd5b506113af806100246000396000f3fe60806040526004361061004a5760003560e01c80635205f1121461004f5780637c7b0ff4146100925780638da547ee146100d5578063b47c1883146100fe578063c69b2cf614610129575b600080fd5b34801561005b57600080fd5b50610076600480360381019061007191906109dc565b610145565b6040516100899796959493929190610b81565b60405180910390f35b34801561009e57600080fd5b506100b960048036038101906100b491906109dc565b6102e4565b6040516100cc9796959493929190610bfe565b60405180910390f35b3480156100e157600080fd5b506100fc60048036038101906100f79190610db0565b61056c565b005b34801561010a57600080fd5b50610113610753565b6040516101209190610e3b565b60405180910390f35b610143600480360381019061013e91906109dc565b610759565b005b60016020528060005260406000206000915090508060000154908060010160009054906101000a900473ffffffffffffffffffffffffffffffffffffffff169080600201805461019490610e85565b80601f01602080910402602001604051908101604052809291908181526020018280546101c090610e85565b801561020d5780601f106101e25761010080835404028352916020019161020d565b820191906000526020600020905b8154815290600101906020018083116101f057829003601f168201915b50505050509080600301805461022290610e85565b80601f016020809104026020016040519081016040528092919081815260200182805461024e90610e85565b801561029b5780601f106102705761010080835404028352916020019161029b565b820191906000526020600020905b81548152906001019060200180831161027e57829003601f168201915b5050505050908060040154908060050160009054906101000a900460ff16908060050160019054906101000a900473ffffffffffffffffffffffffffffffffffffffff16905087565b600080606080600080600080600160008a81526020019081526020016000206040518060e0016040529081600082015481526020016001820160009054906101000a900473ffffffffffffffffffffffffffffffffffffffff1673ffffffffffffffffffffffffffffffffffffffff1673ffffffffffffffffffffffffffffffffffffffff16815260200160028201805461037e90610e85565b80601f01602080910402602001604051908101604052809291908181526020018280546103aa90610e85565b80156103f75780601f106103cc576101008083540402835291602001916103f7565b820191906000526020600020905b8154815290600101906020018083116103da57829003601f168201915b5050505050815260200160038201805461041090610e85565b80601f016020809104026020016040519081016040528092919081815260200182805461043c90610e85565b80156104895780601f1061045e57610100808354040283529160200191610489565b820191906000526020600020905b81548152906001019060200180831161046c57829003601f168201915b50505050508152602001600482015481526020016005820160009054906101000a900460ff1660018111156104c1576104c0610ae9565b5b60018111156104d3576104d2610ae9565b5b81526020016005820160019054906101000a900473ffffffffffffffffffffffffffffffffffffffff1673ffffffffffffffffffffffffffffffffffffffff1673ffffffffffffffffffffffffffffffffffffffff16815250509050806000015181602001518260400151836060015184608001518560a001518660c00151975097509750975097509750975050919395979092949650565b60008081548092919061057e90610ee5565b91905055506040518060e0016040528060005481526020013373ffffffffffffffffffffffffffffffffffffffff168152602001848152602001838152602001828152602001600060018111156105d8576105d7610ae9565b5b8152602001600073ffffffffffffffffffffffffffffffffffffffff1681525060016000805481526020019081526020016000206000820151816000015560208201518160010160006101000a81548173ffffffffffffffffffffffffffffffffffffffff021916908373ffffffffffffffffffffffffffffffffffffffff160217905550604082015181600201908161067291906110d9565b50606082015181600301908161068891906110d9565b506080820151816004015560a08201518160050160006101000a81548160ff021916908360018111156106be576106bd610ae9565b5b021790555060c08201518160050160016101000a81548173ffffffffffffffffffffffffffffffffffffffff021916908373ffffffffffffffffffffffffffffffffffffffff1602179055509050507feb699766c10952ea8a1858c7a1ef278e66cf04b55c04768a0a3c54757f8038a7600054338585856040516107469594939291906111ab565b60405180910390a1505050565b60005481565b600060016000838152602001908152602001600020905060008160000154036107b7576040517f08c379a00000000000000000000000000000000000000000000000000000000081526004016107ae90611258565b60405180910390fd5b600060018111156107cb576107ca610ae9565b5b8160050160009054906101000a900460ff1660018111156107ef576107ee610ae9565b5b1461082f576040517f08c379a0000000000000000000000000000000000000000000000000000000008152600401610826906112c4565b60405180910390fd5b8060040154341015610876576040517f08c379a000000000000000000000000000000000000000000000000000000000815260040161086d90611330565b60405180910390fd5b338160050160016101000a81548173ffffffffffffffffffffffffffffffffffffffff021916908373ffffffffffffffffffffffffffffffffffffffff16021790555060018160050160006101000a81548160ff021916908360018111156108e1576108e0610ae9565b5b02179055508060010160009054906101000a900473ffffffffffffffffffffffffffffffffffffffff1673ffffffffffffffffffffffffffffffffffffffff166108fc82600401549081150290604051600060405180830381858888f19350505050158015610954573d6000803e3d6000fd5b507f65394bc371dbe55ca40e19310c8a935b039bf28367787cfaeeecfe3361bf18a08233604051610986929190611350565b60405180910390a15050565b6000604051905090565b600080fd5b600080fd5b6000819050919050565b6109b9816109a6565b81146109c457600080fd5b50565b6000813590506109d6816109b0565b92915050565b6000602082840312156109f2576109f161099c565b5b6000610a00848285016109c7565b91505092915050565b610a12816109a6565b82525050565b600073ffffffffffffffffffffffffffffffffffffffff82169050919050565b6000610a4382610a18565b9050919050565b610a5381610a38565b82525050565b600081519050919050565b600082825260208201905092915050565b60005b83811015610a93578082015181840152602081019050610a78565b60008484015250505050565b6000601f19601f8301169050919050565b6000610abb82610a59565b610ac58185610a64565b9350610ad5818560208601610a75565b610ade81610a9f565b840191505092915050565b7f4e487b7100000000000000000000000000000000000000000000000000000000600052602160045260246000fd5b60028110610b2957610b28610ae9565b5b50565b6000819050610b3a82610b18565b919050565b6000610b4a82610b2c565b9050919050565b610b5a81610b3f565b82525050565b6000610b6b82610a18565b9050919050565b610b7b81610b60565b82525050565b600060e082019050610b96600083018a610a09565b610ba36020830189610a4a565b8181036040830152610bb58188610ab0565b90508181036060830152610bc98187610ab0565b9050610bd86080830186610a09565b610be560a0830185610b51565b610bf260c0830184610b72565b98975050505050505050565b600060e082019050610c13600083018a610a09565b610c206020830189610b72565b8181036040830152610c328188610ab0565b90508181036060830152610c468187610ab0565b9050610c556080830186610a09565b610c6260a0830185610b51565b610c6f60c0830184610b72565b98975050505050505050565b600080fd5b600080fd5b7f4e487b7100000000000000000000000000000000000000000000000000000000600052604160045260246000fd5b610cbd82610a9f565b810181811067ffffffffffffffff82111715610cdc57610cdb610c85565b5b80604052505050565b6000610cef610992565b9050610cfb8282610cb4565b919050565b600067ffffffffffffffff821115610d1b57610d1a610c85565b5b610d2482610a9f565b9050602081019050919050565b82818337600083830152505050565b6000610d53610d4e84610d00565b610ce5565b905082815260208101848484011115610d6f57610d6e610c80565b5b610d7a848285610d31565b509392505050565b600082601f830112610d9757610d96610c7b565b5b8135610da7848260208601610d40565b91505092915050565b600080600060608486031215610dc957610dc861099c565b5b600084013567ffffffffffffffff811115610de757610de66109a1565b5b610df386828701610d82565b935050602084013567ffffffffffffffff811115610e1457610e136109a1565b5b610e2086828701610d82565b9250506040610e31868287016109c7565b9150509250925092565b6000602082019050610e506000830184610a09565b92915050565b7f4e487b7100000000000000000000000000000000000000000000000000000000600052602260045260246000fd5b60006002820490506001821680610e9d57607f821691505b602082108103610eb057610eaf610e56565b5b50919050565b7f4e487b7100000000000000000000000000000000000000000000000000000000600052601160045260246000fd5b6000610ef0826109a6565b91507fffffffffffffffffffffffffffffffffffffffffffffffffffffffffffffffff8203610f2257610f21610eb6565b5b600182019050919050565b60008190508160005260206000209050919050565b60006020601f8301049050919050565b600082821b905092915050565b600060088302610f8f7fffffffffffffffffffffffffffffffffffffffffffffffffffffffffffffffff82610f52565b610f998683610f52565b95508019841693508086168417925050509392505050565b6000819050919050565b6000610fd6610fd1610fcc846109a6565b610fb1565b6109a6565b9050919050565b6000819050919050565b610ff083610fbb565b611004610ffc82610fdd565b848454610f5f565b825550505050565b600090565b61101961100c565b611024818484610fe7565b505050565b5b818110156110485761103d600082611011565b60018101905061102a565b5050565b601f82111561108d5761105e81610f2d565b61106784610f42565b81016020851015611076578190505b61108a61108285610f42565b830182611029565b50505b505050565b600082821c905092915050565b60006110b060001984600802611092565b1980831691505092915050565b60006110c9838361109f565b9150826002028217905092915050565b6110e282610a59565b67ffffffffffffffff8111156110fb576110fa610c85565b5b6111058254610e85565b61111082828561104c565b600060209050601f8311600181146111435760008415611131578287015190505b61113b85826110bd565b8655506111a3565b601f19841661115186610f2d565b60005b8281101561117957848901518255600182019150602085019450602081019050611154565b868310156111965784890151611192601f89168261109f565b8355505b6001600288020188555050505b505050505050565b600060a0820190506111c06000830188610a09565b6111cd6020830187610b72565b81810360408301526111df8186610ab0565b905081810360608301526111f38185610ab0565b90506112026080830184610a09565b9695505050505050565b7f5269646520646f6573206e6f7420657869737400000000000000000000000000600082015250565b6000611242601383610a64565b915061124d8261120c565b602082019050919050565b6000602082019050818103600083015261127181611235565b9050919050565b7f5269646520616c726561647920626f6f6b656400000000000000000000000000600082015250565b60006112ae601383610a64565b91506112b982611278565b602082019050919050565b600060208201905081810360008301526112dd816112a1565b9050919050565b7f496e73756666696369656e74207061796d656e74000000000000000000000000600082015250565b600061131a601483610a64565b9150611325826112e4565b602082019050919050565b600060208201905081810360008301526113498161130d565b9050919050565b60006040820190506113656000830185610a09565b6113726020830184610b72565b939250505056fea2646970667358221220f1f0c20437a270ebee91a3e677f29790b399c96cbab7ab28f8da40a6dfe44d4364736f6c63430008140033",
  "linkReferences": {},
  "deployedLinkReferences": {}
}